{
  "_format": "hh-sol-artifact-1",
  "contractName": "DisperseGaslessV2",
  "sourceName": "contracts/DisperseGaslessV2.sol",
  "abi": [
    {
      "inputs": [
        {
          "internalType": "address",
          "name": "_trustedForwarder",
          "type": "address"
        }
      ],
      "stateMutability": "nonpayable",
      "type": "constructor"
    },
    {
      "inputs": [
        {
          "internalType": "address[]",
          "name": "recipients",
          "type": "address[]"
        },
        {
          "internalType": "uint256[]",
          "name": "values",
          "type": "uint256[]"
        }
      ],
      "name": "disperseEther",
      "outputs": [],
      "stateMutability": "payable",
      "type": "function"
    },
    {
      "inputs": [
        {
          "internalType": "contract IERC20",
          "name": "token",
          "type": "address"
        },
        {
          "internalType": "address[]",
          "name": "recipients",
          "type": "address[]"
        },
        {
          "internalType": "uint256[]",
          "name": "values",
          "type": "uint256[]"
        }
      ],
      "name": "disperseToken",
      "outputs": [],
      "stateMutability": "nonpayable",
      "type": "function"
    },
    {
      "inputs": [
        {
          "internalType": "contract IERC20",
          "name": "token",
          "type": "address"
        },
        {
          "internalType": "address[]",
          "name": "recipients",
          "type": "address[]"
        },
        {
          "internalType": "uint256[]",
          "name": "values",
          "type": "uint256[]"
        }
      ],
      "name": "disperseTokenSimple",
      "outputs": [],
      "stateMutability": "nonpayable",
      "type": "function"
    },
    {
      "inputs": [],
      "name": "getTrustedForwarder",
      "outputs": [
        {
          "internalType": "address",
          "name": "forwarder",
          "type": "address"
        }
      ],
      "stateMutability": "view",
      "type": "function"
    },
    {
      "inputs": [
        {
          "internalType": "address",
          "name": "forwarder",
          "type": "address"
        }
      ],
      "name": "isTrustedForwarder",
      "outputs": [
        {
          "internalType": "bool",
          "name": "",
          "type": "bool"
        }
      ],
      "stateMutability": "view",
      "type": "function"
    }
  ],
  "bytecode": "0x608060405234801561001057600080fd5b50604051610d11380380610d11833981810160405281019061003291906100ed565b6100418161004760201b60201c565b5061011a565b806000806101000a81548173ffffffffffffffffffffffffffffffffffffffff021916908373ffffffffffffffffffffffffffffffffffffffff16021790555050565b600080fd5b600073ffffffffffffffffffffffffffffffffffffffff82169050919050565b60006100ba8261008f565b9050919050565b6100ca816100af565b81146100d557600080fd5b50565b6000815190506100e7816100c1565b92915050565b6000602082840312156101035761010261008a565b5b6000610111848285016100d8565b91505092915050565b610be8806101296000396000f3fe60806040526004361061004a5760003560e01c806351ba162c1461004f578063572b6c0514610078578063c73a2d60146100b5578063ce1b815f146100de578063e63d38ed14610109575b600080fd5b34801561005b57600080fd5b5061007660048036038101906100719190610880565b610125565b005b34801561008457600080fd5b5061009f600480360381019061009a919061090b565b61020e565b6040516100ac9190610953565b60405180910390f35b3480156100c157600080fd5b506100dc60048036038101906100d79190610880565b610267565b005b3480156100ea57600080fd5b506100f3610421565b604051610100919061097d565b60405180910390f35b610123600480360381019061011e9190610998565b61044a565b005b60005b8251811015610208578373ffffffffffffffffffffffffffffffffffffffff166323b872dd610155610547565b85848151811061016857610167610a10565b5b602002602001015185858151811061018357610182610a10565b5b60200260200101516040518463ffffffff1660e01b81526004016101a993929190610a4e565b6020604051808303816000875af11580156101c8573d6000803e3d6000fd5b505050506040513d601f19601f820116820180604052508101906101ec9190610ab1565b6101f557600080fd5b808061020090610b0d565b915050610128565b50505050565b60008060009054906101000a900473ffffffffffffffffffffffffffffffffffffffff1673ffffffffffffffffffffffffffffffffffffffff168273ffffffffffffffffffffffffffffffffffffffff16149050919050565b6000805b83518110156102af5782818151811061028757610286610a10565b5b60200260200101518261029a9190610b55565b915080806102a790610b0d565b91505061026b565b508373ffffffffffffffffffffffffffffffffffffffff166323b872dd6102d4610547565b30846040518463ffffffff1660e01b81526004016102f493929190610a4e565b6020604051808303816000875af1158015610313573d6000803e3d6000fd5b505050506040513d601f19601f820116820180604052508101906103379190610ab1565b61034057600080fd5b60005b835181101561041a578473ffffffffffffffffffffffffffffffffffffffff1663a9059cbb85838151811061037b5761037a610a10565b5b602002602001015185848151811061039657610395610a10565b5b60200260200101516040518363ffffffff1660e01b81526004016103bb929190610b89565b6020604051808303816000875af11580156103da573d6000803e3d6000fd5b505050506040513d601f19601f820116820180604052508101906103fe9190610ab1565b61040757600080fd5b808061041290610b0d565b915050610343565b5050505050565b60008060009054906101000a900473ffffffffffffffffffffffffffffffffffffffff16905090565b60005b82518110156104e45782818151811061046957610468610a10565b5b602002602001015173ffffffffffffffffffffffffffffffffffffffff166108fc83838151811061049d5761049c610a10565b5b60200260200101519081150290604051600060405180830381858888f193505050501580156104d0573d6000803e3d6000fd5b5080806104dc90610b0d565b91505061044d565b5060004790506000811115610542576104fb610547565b73ffffffffffffffffffffffffffffffffffffffff166108fc829081150290604051600060405180830381858888f19350505050158015610540573d6000803e3d6000fd5b505b505050565b6000601460003690501015801561056357506105623361020e565b5b1561057757601436033560601c905061057b565b3390505b90565b6000604051905090565b600080fd5b600080fd5b600073ffffffffffffffffffffffffffffffffffffffff82169050919050565b60006105bd82610592565b9050919050565b60006105cf826105b2565b9050919050565b6105df816105c4565b81146105ea57600080fd5b50565b6000813590506105fc816105d6565b92915050565b600080fd5b6000601f19601f8301169050919050565b7f4e487b7100000000000000000000000000000000000000000000000000000000600052604160045260246000fd5b61065082610607565b810181811067ffffffffffffffff8211171561066f5761066e610618565b5b80604052505050565b600061068261057e565b905061068e8282610647565b919050565b600067ffffffffffffffff8211156106ae576106ad610618565b5b602082029050602081019050919050565b600080fd5b6106cd816105b2565b81146106d857600080fd5b50565b6000813590506106ea816106c4565b92915050565b60006107036106fe84610693565b610678565b90508083825260208201905060208402830185811115610726576107256106bf565b5b835b8181101561074f578061073b88826106db565b845260208401935050602081019050610728565b5050509392505050565b600082601f83011261076e5761076d610602565b5b813561077e8482602086016106f0565b91505092915050565b600067ffffffffffffffff8211156107a2576107a1610618565b5b602082029050602081019050919050565b6000819050919050565b6107c6816107b3565b81146107d157600080fd5b50565b6000813590506107e3816107bd565b92915050565b60006107fc6107f784610787565b610678565b9050808382526020820190506020840283018581111561081f5761081e6106bf565b5b835b81811015610848578061083488826107d4565b845260208401935050602081019050610821565b5050509392505050565b600082601f83011261086757610866610602565b5b81356108778482602086016107e9565b91505092915050565b60008060006060848603121561089957610898610588565b5b60006108a7868287016105ed565b935050602084013567ffffffffffffffff8111156108c8576108c761058d565b5b6108d486828701610759565b925050604084013567ffffffffffffffff8111156108f5576108f461058d565b5b61090186828701610852565b9150509250925092565b60006020828403121561092157610920610588565b5b600061092f848285016106db565b91505092915050565b60008115159050919050565b61094d81610938565b82525050565b60006020820190506109686000830184610944565b92915050565b610977816105b2565b82525050565b6000602082019050610992600083018461096e565b92915050565b600080604083850312156109af576109ae610588565b5b600083013567ffffffffffffffff8111156109cd576109cc61058d565b5b6109d985828601610759565b925050602083013567ffffffffffffffff8111156109fa576109f961058d565b5b610a0685828601610852565b9150509250929050565b7f4e487b7100000000000000000000000000000000000000000000000000000000600052603260045260246000fd5b610a48816107b3565b82525050565b6000606082019050610a63600083018661096e565b610a70602083018561096e565b610a7d6040830184610a3f565b949350505050565b610a8e81610938565b8114610a9957600080fd5b50565b600081519050610aab81610a85565b92915050565b600060208284031215610ac757610ac6610588565b5b6000610ad584828501610a9c565b91505092915050565b7f4e487b7100000000000000000000000000000000000000000000000000000000600052601160045260246000fd5b6000610b18826107b3565b91507fffffffffffffffffffffffffffffffffffffffffffffffffffffffffffffffff8203610b4a57610b49610ade565b5b600182019050919050565b6000610b60826107b3565b9150610b6b836107b3565b9250828201905080821115610b8357610b82610ade565b5b92915050565b6000604082019050610b9e600083018561096e565b610bab6020830184610a3f565b939250505056fea26469706673582212205420125f9f6f0bd592ff0c9bc047e358d0e10ac6f302d94d30796cf1bd279a5a64736f6c63430008110033",
  "linkReferences": {},
  "deployedLinkReferences": {}
}