{"contracts/Gasless.sol":{"Gasless":{"abi":[{"inputs":[{"internalType":"address","name":"trustedForwarder","type":"address"}],"stateMutability":"nonpayable","type":"constructor"},{"inputs":[{"internalType":"uint256","name":"newNumber","type":"uint256"}],"name":"changeNumber","outputs":[],"stateMutability":"nonpayable","type":"function"},{"inputs":[{"internalType":"address","name":"forwarder","type":"address"}],"name":"isTrustedForwarder","outputs":[{"internalType":"bool","name":"","type":"bool"}],"stateMutability":"view","type":"function"},{"inputs":[],"name":"myNumber","outputs":[{"internalType":"uint256","name":"","type":"uint256"}],"stateMutability":"view","type":"function"}],"evm":{"bytecode":{"linkReferences":{},"object":"60a060405234801561001057600080fd5b506040516103b93803806103b9833981810160405281019061003291906100d1565b808073ffffffffffffffffffffffffffffffffffffffff1660808173ffffffffffffffffffffffffffffffffffffffff168152505050506100fe565b600080fd5b600073ffffffffffffffffffffffffffffffffffffffff82169050919050565b600061009e82610073565b9050919050565b6100ae81610093565b81146100b957600080fd5b50565b6000815190506100cb816100a5565b92915050565b6000602082840312156100e7576100e661006e565b5b60006100f5848285016100bc565b91505092915050565b6080516102a1610118600039600060c401526102a16000f3fe608060405234801561001057600080fd5b50600436106100415760003560e01c806307391dd61461004657806323fd0e4014610062578063572b6c0514610080575b600080fd5b610060600480360381019061005b9190610153565b6100b0565b005b61006a6100ba565b604051610077919061018f565b60405180910390f35b61009a60048036038101906100959190610208565b6100c0565b6040516100a79190610250565b60405180910390f35b8060008190555050565b60005481565b60007f000000000000000000000000000000000000000000000000000000000000000073ffffffffffffffffffffffffffffffffffffffff168273ffffffffffffffffffffffffffffffffffffffff16149050919050565b600080fd5b6000819050919050565b6101308161011d565b811461013b57600080fd5b50565b60008135905061014d81610127565b92915050565b60006020828403121561016957610168610118565b5b60006101778482850161013e565b91505092915050565b6101898161011d565b82525050565b60006020820190506101a46000830184610180565b92915050565b600073ffffffffffffffffffffffffffffffffffffffff82169050919050565b60006101d5826101aa565b9050919050565b6101e5816101ca565b81146101f057600080fd5b50565b600081359050610202816101dc565b92915050565b60006020828403121561021e5761021d610118565b5b600061022c848285016101f3565b91505092915050565b60008115159050919050565b61024a81610235565b82525050565b60006020820190506102656000830184610241565b9291505056fea26469706673582212209f7450792c46d3f89f00a622578865cea3a36fe0d577b7b41bd25eb709a2378764736f6c63430008110033","opcodes":"PUSH1 0xA0 PUSH1 0x40 MSTORE CALLVALUE DUP1 ISZERO PUSH2 0x10 JUMPI PUSH1 0x0 DUP1 REVERT JUMPDEST POP PUSH1 0x40 MLOAD PUSH2 0x3B9 CODESIZE SUB DUP1 PUSH2 0x3B9 DUP4 CODECOPY DUP2 DUP2 ADD PUSH1 0x40 MSTORE DUP2 ADD SWAP1 PUSH2 0x32 SWAP2 SWAP1 PUSH2 0xD1 JUMP JUMPDEST DUP1 DUP1 PUSH20 0xFFFFFFFFFFFFFFFFFFFFFFFFFFFFFFFFFFFFFFFF AND PUSH1 0x80 DUP2 PUSH20 0xFFFFFFFFFFFFFFFFFFFFFFFFFFFFFFFFFFFFFFFF AND DUP2 MSTORE POP POP POP POP PUSH2 0xFE JUMP JUMPDEST PUSH1 0x0 DUP1 REVERT JUMPDEST PUSH1 0x0 PUSH20 0xFFFFFFFFFFFFFFFFFFFFFFFFFFFFFFFFFFFFFFFF DUP3 AND SWAP1 POP SWAP2 SWAP1 POP JUMP JUMPDEST PUSH1 0x0 PUSH2 0x9E DUP3 PUSH2 0x73 JUMP JUMPDEST SWAP1 POP SWAP2 SWAP1 POP JUMP JUMPDEST PUSH2 0xAE DUP2 PUSH2 0x93 JUMP JUMPDEST DUP2 EQ PUSH2 0xB9 JUMPI PUSH1 0x0 DUP1 REVERT JUMPDEST POP JUMP JUMPDEST PUSH1 0x0 DUP2 MLOAD SWAP1 POP PUSH2 0xCB DUP2 PUSH2 0xA5 JUMP JUMPDEST SWAP3 SWAP2 POP POP JUMP JUMPDEST PUSH1 0x0 PUSH1 0x20 DUP3 DUP5 SUB SLT ISZERO PUSH2 0xE7 JUMPI PUSH2 0xE6 PUSH2 0x6E JUMP JUMPDEST JUMPDEST PUSH1 0x0 PUSH2 0xF5 DUP5 DUP3 DUP6 ADD PUSH2 0xBC JUMP JUMPDEST SWAP2 POP POP SWAP3 SWAP2 POP POP JUMP JUMPDEST PUSH1 0x80 MLOAD PUSH2 0x2A1 PUSH2 0x118 PUSH1 0x0 CODECOPY PUSH1 0x0 PUSH1 0xC4 ADD MSTORE PUSH2 0x2A1 PUSH1 0x0 RETURN INVALID PUSH1 0x80 PUSH1 0x40 MSTORE CALLVALUE DUP1 ISZERO PUSH2 0x10 JUMPI PUSH1 0x0 DUP1 REVERT JUMPDEST POP PUSH1 0x4 CALLDATASIZE LT PUSH2 0x41 JUMPI PUSH1 0x0 CALLDATALOAD PUSH1 0xE0 SHR DUP1 PUSH4 0x7391DD6 EQ PUSH2 0x46 JUMPI DUP1 PUSH4 0x23FD0E40 EQ PUSH2 0x62 JUMPI DUP1 PUSH4 0x572B6C05 EQ PUSH2 0x80 JUMPI JUMPDEST PUSH1 0x0 DUP1 REVERT JUMPDEST PUSH2 0x60 PUSH1 0x4 DUP1 CALLDATASIZE SUB DUP2 ADD SWAP1 PUSH2 0x5B SWAP2 SWAP1 PUSH2 0x153 JUMP JUMPDEST PUSH2 0xB0 JUMP JUMPDEST STOP JUMPDEST PUSH2 0x6A PUSH2 0xBA JUMP JUMPDEST PUSH1 0x40 MLOAD PUSH2 0x77 SWAP2 SWAP1 PUSH2 0x18F JUMP JUMPDEST PUSH1 0x40 MLOAD DUP1 SWAP2 SUB SWAP1 RETURN JUMPDEST PUSH2 0x9A PUSH1 0x4 DUP1 CALLDATASIZE SUB DUP2 ADD SWAP1 PUSH2 0x95 SWAP2 SWAP1 PUSH2 0x208 JUMP JUMPDEST PUSH2 0xC0 JUMP JUMPDEST PUSH1 0x40 MLOAD PUSH2 0xA7 SWAP2 SWAP1 PUSH2 0x250 JUMP JUMPDEST PUSH1 0x40 MLOAD DUP1 SWAP2 SUB SWAP1 RETURN JUMPDEST DUP1 PUSH1 0x0 DUP2 SWAP1 SSTORE POP POP JUMP JUMPDEST PUSH1 0x0 SLOAD DUP2 JUMP JUMPDEST PUSH1 0x0 PUSH32 0x0 PUSH20 0xFFFFFFFFFFFFFFFFFFFFFFFFFFFFFFFFFFFFFFFF AND DUP3 PUSH20 0xFFFFFFFFFFFFFFFFFFFFFFFFFFFFFFFFFFFFFFFF AND EQ SWAP1 POP SWAP2 SWAP1 POP JUMP JUMPDEST PUSH1 0x0 DUP1 REVERT JUMPDEST PUSH1 0x0 DUP2 SWAP1 POP SWAP2 SWAP1 POP JUMP JUMPDEST PUSH2 0x130 DUP2 PUSH2 0x11D JUMP JUMPDEST DUP2 EQ PUSH2 0x13B JUMPI PUSH1 0x0 DUP1 REVERT JUMPDEST POP JUMP JUMPDEST PUSH1 0x0 DUP2 CALLDATALOAD SWAP1 POP PUSH2 0x14D DUP2 PUSH2 0x127 JUMP JUMPDEST SWAP3 SWAP2 POP POP JUMP JUMPDEST PUSH1 0x0 PUSH1 0x20 DUP3 DUP5 SUB SLT ISZERO PUSH2 0x169 JUMPI PUSH2 0x168 PUSH2 0x118 JUMP JUMPDEST JUMPDEST PUSH1 0x0 PUSH2 0x177 DUP5 DUP3 DUP6 ADD PUSH2 0x13E JUMP JUMPDEST SWAP2 POP POP SWAP3 SWAP2 POP POP JUMP JUMPDEST PUSH2 0x189 DUP2 PUSH2 0x11D JUMP JUMPDEST DUP3 MSTORE POP POP JUMP JUMPDEST PUSH1 0x0 PUSH1 0x20 DUP3 ADD SWAP1 POP PUSH2 0x1A4 PUSH1 0x0 DUP4 ADD DUP5 PUSH2 0x180 JUMP JUMPDEST SWAP3 SWAP2 POP POP JUMP JUMPDEST PUSH1 0x0 PUSH20 0xFFFFFFFFFFFFFFFFFFFFFFFFFFFFFFFFFFFFFFFF DUP3 AND SWAP1 POP SWAP2 SWAP1 POP JUMP JUMPDEST PUSH1 0x0 PUSH2 0x1D5 DUP3 PUSH2 0x1AA JUMP JUMPDEST SWAP1 POP SWAP2 SWAP1 POP JUMP JUMPDEST PUSH2 0x1E5 DUP2 PUSH2 0x1CA JUMP JUMPDEST DUP2 EQ PUSH2 0x1F0 JUMPI PUSH1 0x0 DUP1 REVERT JUMPDEST POP JUMP JUMPDEST PUSH1 0x0 DUP2 CALLDATALOAD SWAP1 POP PUSH2 0x202 DUP2 PUSH2 0x1DC JUMP JUMPDEST SWAP3 SWAP2 POP POP JUMP JUMPDEST PUSH1 0x0 PUSH1 0x20 DUP3 DUP5 SUB SLT ISZERO PUSH2 0x21E JUMPI PUSH2 0x21D PUSH2 0x118 JUMP JUMPDEST JUMPDEST PUSH1 0x0 PUSH2 0x22C DUP5 DUP3 DUP6 ADD PUSH2 0x1F3 JUMP JUMPDEST SWAP2 POP POP SWAP3 SWAP2 POP POP JUMP JUMPDEST PUSH1 0x0 DUP2 ISZERO ISZERO SWAP1 POP SWAP2 SWAP1 POP JUMP JUMPDEST PUSH2 0x24A DUP2 PUSH2 0x235 JUMP JUMPDEST DUP3 MSTORE POP POP JUMP JUMPDEST PUSH1 0x0 PUSH1 0x20 DUP3 ADD SWAP1 POP PUSH2 0x265 PUSH1 0x0 DUP4 ADD DUP5 PUSH2 0x241 JUMP JUMPDEST SWAP3 SWAP2 POP POP JUMP INVALID LOG2 PUSH5 0x6970667358 0x22 SLT KECCAK256 SWAP16 PUSH21 0x50792C46D3F89F00A622578865CEA3A36FE0D577B7 0xB4 SHL 0xD2 0x5E 0xB7 MULMOD LOG2 CALLDATACOPY DUP8 PUSH5 0x736F6C6343 STOP ADDMOD GT STOP CALLER "},"methodIdentifiers":{"changeNumber(uint256)":"07391dd6","isTrustedForwarder(address)":"572b6c05","myNumber()":"23fd0e40"}}}}}